:020000040800F2
:10000000680600203902000877020008790200081B
:100010007B0200087D0200087F020008000000004B
:100020000000000000000000000000008102000845
:100030008302000800000000850200088702000813
:100040008902000889020008890200088902000864
:100050008902000889020008890200088902000854
:100060008902000889020008890200088902000844
:100070008902000889020008890200088902000834
:100080008902000889020008890200088902000824
:100090008902000889020008890200088902000814
:1000A0008902000889020008890200088902000804
:1000B00089020008890200088902000889020008F4
:1000C00089020008890200088902000889020008E4
:1000D00089020008890200088902000889020008D4
:1000E00089020008890200088902000889020008C4
:1000F00089020008890200088902000889020008B4
:1001000089020008890200088902000889020008A3
:100110008902000889020008890200088902000893
:100120008902000889020008890200088902000883
:100130008902000889020008890200088902000873
:100140008902000889020008890200088902000863
:100150008902000889020008890200088902000853
:100160008902000889020008890200088902000843
:1001700089020008890200088902000800000000C6
:10018000890200088902000800F002F800F044F833
:1001900014A696E8000CB244B344DA4501D100F04D
:1001A0003BF8BAE80F000FA696E83000A5EB04056F
:1001B00004EB0607AAEB0704A7F101074FEA1515A0
:1001C0004FEA3414A4F10104AC4201D300F024F846
:1001D00013F0010F18BFFB1A43F0010300F001F800
:1001E000DBE7184700090000100900007047000015
:1001F0000023002400250026103A28BF78C1FBD830
:10020000520728BF30C148BF0B6070471FB500F0D0
:1002100056FC1FBD10B510BD00F057F81146FFF792
:10022000F5FF00F031FA00F075F803B4FFF7F2FFC4
:1002300003BC00F07DF8000017481849184B99429C
:100240003CBF50F8042B41F8042BF8D3154B16494A
:100250004FF000028B4238BF43F8042BFAD3DFF88B
:100260004C00016841F470010160BFF34F8FBFF390
:100270006F8F0F480047FEE7FEE7FEE7FEE7FEE769
:10028000FEE7FEE7FEE7FEE7FEE7000009480A4951
:100290000A4A0B4B70470000F40A000800000020D7
:1002A00000000020000000206806002088ED00E02B
:1002B000890100086800002068060020680200200C
:1002C00068020020704770477047754600F02CF8B0
:1002D000AE4605006946534620F00700854618B033
:1002E00020B5FFF7D3FFBDE820404FF000064FF0E8
:1002F00000074FF000084FF0000BAC46ACE8C00917
:10030000ACE8C009ACE8C009ACE8C00921F00701BD
:100310008D46704710B50446AFF300802046BDE817
:100320001040FFF782BF0000004870470000002027
:1003300001491820ABBEFEE726000200704700000E
:1003400041F26001C4F20201086840F00100086057
:100350000421C4F20101086840F48070086040F292
:100360000831C5F20401086840F48000086008689C
:1003700020F470100860086820F4403008600868B5
:1003800040F480300860086820F01F000860704763
:1003900080B582B041F24C01C4F20201086840F419
:1003A0000050086041F22C01C4F20201086840F4D8
:1003B00000500860086820F40050086000F050F811
:1003C000FFF7BEFF00F06EF80821C5F204010868CF
:1003D00040F001000860086840F0020008600C224C
:1003E000C5F204020192106820F018001060106835
:1003F00020F0200010603023C5F20403186820F0BC
:100400000F001860186840F4C0701860B023C5F27F
:100410000403186820F0400018601423C5F2040398
:10042000186820F4E0101860186840F44020186044
:10043000106820F400501060106820F440601060D4
:10044000086840F001000860FFE70020C5F20400E2
:100450000068C00708B9FFE7F7E702B080BD0000F9
:1004600041F24C01C4F20201086840F0010008604A
:100470004FF09041086820F00C000860086840F0D8
:100480000C0008600C21C4F60001086820F00C0084
:1004900008602C21C4F60001086840F002000860E2
:1004A0007047000081B00820C5F204000068800099
:1004B000002808D5FFE70821C5F20401086820F0EC
:1004C00000500860FFE70821C5F20401086840F009
:1004D000805008604FF4C8600090FFE7009820B19A
:1004E000FFE7009801380090F8E701B0704700007E
:1004F00041F24C01C4F20201086840F001000860BA
:100500004FF09041086820F440600860086840F4AB
:10051000006008602021C4F60001086840F48010E3
:1005200008600821C4F60001086840F48060086093
:10053000086840F4006008600C21C4F600010868F7
:1005400020F440600860704741F24C01C4F202019F
:10055000086840F00100086041F25801C4F202014D
:10056000086840F0010008604FF09041086820F4EE
:10057000806008600821C4F60001086840F440600B
:1005800008602021C4F60001086820F470000860AB
:10059000086840F4801008604FF08041086820F03F
:1005A000100008602822C4F20002072010602C22EC
:1005B000C4F2000240F6FF7010601822C4F200027C
:1005C000106840F020001060106840F0400010609B
:1005D000106840F0080010602022C4F20002106889
:1005E00040F002001060106840F0010010603422FA
:1005F000C4F2000210681060086840F00100086052
:100600007047000081B041F20001C4F202010868A5
:1006100040F001000860FFE741F20000C4F2020070
:1006200000688007002801D4FFE7F5E741F20801E0
:10063000C4F20201086820F003000860086808603E
:1006400041F20001C4F202010091086820F0F000BC
:100650000860086840F070000860086840F0080012
:100660000860086840F002000860FFE741F20000FF
:10067000C4F2020000688007002801D4FFE7F5E714
:1006800001B070470000000080B584B000200390E6
:10069000FFF7B8FFFFF77CFEFFF756FFFFF728FFD5
:1006A000FFE70821C5F20401086840F00400086073
:1006B000FFE70020C5F2040000684007002801D4CD
:1006C000FFE7F6E74020C5F20400016840F2600051
:1006D000C2F200000190016090ED000AB8EE400AFD
:1006E0009FED251A31EE400A80EE010A10EE100A45
:1006F00000F074F941EC100B51EC100B9FED1C0B4A
:1007000053EC102B00F06CF841EC100B51EC100B7B
:1007100000F034F80146019840F26402C2F200028F
:1007200011600068B0F57A6F07D9FFE73421C4F291
:1007300000014FF48050086009E040F26000C2F20E
:10074000000000683421C4F200010860FFE70020C7
:100750000290FFE70298B0F57A7F05DAFFE7FFE73E
:10076000029801300290F5E79BE700BF00BF00BF91
:100770006666666666660A400000804521F00042B3
:1007800001F00043A2F16052B2F5801F28BFD2F100
:100790007F6C0BD95FEA001C43EAC20242EB507047
:1007A00018BF704728BF20F001007047B2F5801FC6
:1007B000BCBF184670474FEA410C1CF5001F02D21F
:1007C000084600F089B970B500F0B4F8000000895F
:1007D000FFF7F6BF4FF00040A0F580007047000023
:1007E00070B5DFF848C11CEA111E1EBF1CEA1315C4
:1007F0009EEA0C0F95EA0C0F00F06F8081EA03046B
:100800004EEAD47EAE4421EA4C1123EA4C1341F463
:10081000801143F48013AEF17F7EA1FB024CA0FB5C
:100820000365361955EB0C05A1FB034C4CF1000395
:10083000A0FB021C16EB0C06654153F100030942B4
:1008400018BF46F0010613F4007F0BD14FEA0331C5
:100850004FEA053041EA155140EA165034036FF073
:1008600003020AE04FEAC3214FEAC52041EA55518D
:1008700040EA5650F4026FF0020202EB2E4201EB06
:10088000025585EACE710AD05FEA440C18BF24F005
:10089000004450F1000041F1000120EAD47040F220
:1008A000FE7C624500D270BDA84214BF4FF0804468
:1008B0004FF04044002E08BF0024BEF1806FA8BF57
:1008C000A1F1C041BDE8704080F2828001F1C041D9
:1008D00001F000414FF0000070470CEA13159EEA4A
:1008E0000C0F18BF95EA0C0F06D081EA030E4FF0EB
:1008F00000000EF0004170BD00F01CF88900013EC0
:1009000000F007B800F009B84FEA430C5FEA5C5CFE
:1009100008D081EA030100F05BB84FEA410C5FEABE
:100920005C5CF6D102494FF0000070470000FF0701
:100930000000F87F0EF1020E2EF0030E5EF8046B3D
:10094000364205D4012A43EB030515F5001F12D8E2
:10095000012841EB010C1CF5001F0CD80ED14FEA09
:10096000D17C0CEB4C0C0CF1020C15F5001F08BFF0
:100970004CEBD37C04E04FF0080C01E04FEAD37C51
:100980000CEB4C0526FA05F606F00706B6F1040C4A
:1009900006D20EEB860CBDE870404CF0010C6047AF
:1009A000DFE80CF0090B02024FF00041A1F5002135
:1009B0004FF0000070BD19461046012851EB0104AC
:1009C00018BFD4F5001484BF002001F0004170BDB1
:1009D0000808A0F500114FEA3101704743004FEAC3
:1009E000D30C4FEA3C0C43401FBF40070CF1605151
:1009F00013F0FE4F70471CF0006F03D10CF0004164
:100A0000002070470CF0004343EA507040EACC00ED
:100A100010B500F00EF800BF000000924FEA000190
:100A2000FFF7D6BF4FF00041A1F500214FF00000C5
:100A300070470EF1020E2EF0030E5EF8044B2442B6
:100A400004D44FEA4102B2F17F4F11D84FEA40037C
:100A5000B3F17F4F0CD80ED14FEAD07C0CEB4C0C8D
:100A60000CF1020CB2F17F4F08BF4CEBD17C04E0DB
:100A70004FF0080C01E04FEAD17C0CEB4C0324FA58
:100A800003F404F00704B4F1040C06D20EEB840C5A
:100A9000BDE810404CF0010C6047DFE80CF007089F
:100AA00002024FF00040A0F5800010BD0846420051
:100AB00018BFD2F1807288BF00F0004010BDF1EE87
:100AC000100A4FF6FF71C0F2C03120EA010040F079
:100AD0004070E1EE100A7047FF2141EAD050C00596
:100AE00070470000F40A00080000002068060000BB
:040AF000F001000809
:040000050800018965
:00000001FF
